:0C00000009C0FECFFDCFFCCFFBCFFACF34
:10000C00F9CFF8CFF7CFF6CFF894EE27ECBBE5BFDE
:10001C008DE0A2E0ED938A95E9F780E4A0E6ED93FC
:10002C008A95E9F7EFE9EDBFC0E7E2C0C29ABA984A
:10003C00B89AB99AE3E2EFBDE9E0E3BFE0E0E2BFD2
:10004C00E4E6E6BFE9BDE0E8E8B90895BA93AA93FF
:10005C000A9300E0EB810E1750F4C09AA981BA8183
:10006C0004D1C098A981BA8100D10F5FF3CF088168
:10007C0024960895AA93A5D100E0EA810E1748F4BE
:10008C0010E01C3320F4D9D03DD01F5FFACF0F5FA6
:10009C00F4CF9BD123960895AA93E881D1D041F453
:1000AC00D4D0F0E0AE2FBF2FE4E1F0E0D2D00BC003
:1000BC00E230A0E0FA0739F4D1D0F0E0AE2FBF2F38
:1000CC00E3E0F0E0C6D0219608957BD100E010E08B
:1000DC00B29911C00F5F1F4FE4E6F0E0E017F10793
:1000EC0039F4E1E0EA93A0EDB7E0B0DFE2E054C010
:1000FC00B9D0BBD0EDCF002E012A11F0E1E04CC0FD
:10010C00E0E04AC05ED1E1DFE23039F440FC03C0EC
:10011C00E1E04E2A02C0EEEF4E2240FC02C0E0E0CD
:10012C003BC001E0A02FB8DF40FE32C0CEDF1E2F57
:10013C00113009F5E02F84D069F487D0E53620F032
:10014C00A0E0B0E0E4E104C080D0EC5EA0E0B0E060
:10015C0027D110C0E230A0E0FA0761F47FD0E03183
:10016C0020F0A1E0B0E0E3E004C078D0ED5FA1E0C6
:10017C00B0E016D106C0123031F40F5F033008F036
:10018C0000E0A02F89DF003011F4EEEF4E22CCCF2F
:10019C00E1E0EA9367D05ADF09911991089522970B
:1001AC000FD16DD0AAE0B0E060D069D0E030E1F0C2
:1001BC00ACECACD0A4E4AAD040D061D0ACECA6D0CE
:1001CC00AEEBA4D09ED0EB839CD0EC83E0E0FC8122
:1001DC00AE2FBF2FEB81F0E0EC7FEA2BFB2B1E2F19
:1001EC002F2FA2D00E2F01C0E1E8EED02596089556
:1001FC001DDFD5DF0E2F023E14F00D334CF0E3E083
:10020C00EA93A4EFB1E022DFA8EBBBE02ED002C052
:10021C0004304CF4E1E0EA9325D018DFE4E6E9BDC4
:10022C001DD0AE2F27DFE2E0EA931CD00FDF0DD0FC
:10023C00E9BD03D067DFFDCFFFCFA8EEB3E015C05B
:10024C00F0E0E130A0E0FA070895A0E0B0E09DD026
:10025C00089588D0EA93A8ECB0E0F8CEA1E0B0E025
:10026C0094D00895A2E3B0E00895109639F080E69A
:10027C0099E00197F1F7A8951197C9F70895EE2722
:10028C00C498BC9A80E894E00197F1F7BC988DE291
:10029C008A95F1F7B49B089583EF8A95F1F7B49B97
:1002AC00E1E088EA93E00197F1F70895BC9A86E0C3
:1002BC008A95F1F7BC9883E28A95F1F78894B49902
:1002CC000894E79580EC90E00197F1F70895E89495
:1002DC00BC9A86E08A95F1F770FDBC988AE28A9503
:1002EC00F1F7B49903C070FF03C0089570FF08952F
:1002FC0080EF8A95F1F7BC9880E18A95F1F76894C4
:10030C00089568E0D3DF6A95E9F708957A2F68E0DD
:10031C00EE27DDDF26F477956A95D9F7E3950895F6
:10032C00F195E195F0400895F595E795F595E795EC
:10033C00F595E795F595E79508950024112490E13E
:10034C00AA0FBB1F001C111C0E1A1F0A18F40E0E4C
:10035C001F1E01C0A1609A9599F7EA2FFB2FA02DC3
:10036C00B12D089504D0E9DF0EF4DADF0895E89496
:10037C00F7FF02C0D5DF6894B7FF06C0A095B09513
:10038C00119600F8039400FA0895E199FECFFF93BB
:10039C00FFB7F894AEBBE09AEDB3FFBFFF910895A1
:1003AC00E19B02C0A895FCCF9FB7F894AEBBE09A36
:1003BC008DB3E81719F0EDBBE29AE19A9FBF08954F
:1003CC002A931A930A9308952A8119810881089512
:00000001FF
