:0600000009C0FECFFDCF98
:10000600FCCFFBCFFACFF9CFF8CFF7CFF6CFF894E6
:10001600EE27ECBBE5BF8DE0A2E0ED938A95E9F70C
:1000260080E4A0E6ED938A95E9F7EFE9EDBFC0E736
:10003600EAC0C29ABA98B89AB99AE3E2EFBDE9E083
:10004600E3BFE0E0E2BFE4E6E6BFE9BDE0E8E8B929
:100056000895BA93AA930A9300E0EB810E1750F421
:10006600C09AA981BA8111D1C098A981BA810DD14E
:100076000F5FF3CF088124960895AA93B2D100E0CA
:10008600EA810E1748F410E01C3320F4DFD04AD082
:100096001F5FFACF0F5FF4CFA8D123960895AA93D6
:1000A600D8D083D1E53618F0D4D0E8E289D1D4D0BF
:1000B6007CD1E03118F0D0D0ECE082D1E881CFD00D
:1000C60041F4D2D0F0E0AE2FBF2FE4E1F0E0CFD084
:1000D6000BC0E230A0E0FA0739F4CED0F0E0AE2F44
:1000E600BF2FE3E0F0E0C3D0219608957AD100E077
:1000F60010E0B29910C00F5F1F4FE4E6F0E0E01782
:10010600F10731F4BCD0A0EDB7E0A3DFE2E04FC0C9
:10011600B9D0BBD0EECF002E012A11F0E1E047C0E6
:10012600E0E045C05ED1E2DFE23039F440FC03C0D6
:10013600E1E04E2A02C0EEEF4E2240FC02C0E0E0B3
:1001460036C001E0A02FABDF40FE2EC0CFDF1E2F52
:100156001130E9F4E02F83D059F486D0E53618F053
:1001660078D0E4E103C080D0EC5E73D029D10EC014
:10017600E230A0E0FA0751F47FD0E03118F06CD0FD
:10018600E3E003C079D0ED5F67D01AD106C0123024
:1001960031F40F5F033008F000E0A02F80DF00305D
:1001A60011F4EEEF4E22D0CF6AD06CD052DF099117
:1001B60019910895229714D172D0AAE0B0E065D0C3
:1001C6006ED0E030E1F0ACECB1D0A4E4AFD03ED0DC
:1001D60066D0ACECABD0AEEBA9D0A3D0EB83A1D06C
:1001E600EC83E0E0FC81AE2FBF2FEB81F0E0EC7FEB
:1001F600EA2BFB2B1E2F2F2FA7D00E2F01C0E1E8D5
:10020600F3D02596089515DFD5DF0E2F023E14F0A4
:100216000D3344F034D0A8E8B3E11BDFA8EBBBE014
:1002260034D002C0043044F42AD02CD012DFE4E6E5
:10023600E9BD22D0AE2F21DFE2E0EA9323D009DF29
:1002460013D0E9BD03D06EDFFDCFFFCFA8EEB3E03C
:100256001CC0A0E0B0E00895A1E0B0E00895F0E091
:10026600E130A0E0FA070895F4DF9FD008958AD020
:10027600EA93A8ECB0E0EDCEEFDF97D00895E1E089
:10028600EA930895A2E3B0E00895109639F080E667
:1002960099E00197F1F7A8951197C9F70895EE2708
:1002A600C498BC9A80E894E00197F1F7BC988DE277
:1002B6008A95F1F7B49B089583EF8A95F1F7B49B7D
:1002C600E1E088EA93E00197F1F70895BC9A86E0A9
:1002D6008A95F1F7BC9883E28A95F1F78894B499E8
:1002E6000894E79580EC90E00197F1F70895E8947B
:1002F600BC9A86E08A95F1F770FDBC988AE28A95E9
:10030600F1F7B49903C070FF03C0089570FF089514
:1003160080EF8A95F1F7BC9880E18A95F1F76894A9
:10032600089568E0D3DF6A95E9F708957A2F68E0C3
:10033600EE27DDDF26F477956A95D9F7E3950895DC
:10034600F195E195F0400895F595E795F595E795D2
:10035600F595E795F595E79508950024112490E124
:10036600AA0FBB1F001C111C0E1A1F0A18F40E0E32
:100376001F1E01C0A1609A9599F7EA2FFB2FA02DA9
:10038600B12D089504D0E9DF0EF4DADF0895E8947C
:10039600F7FF02C0D5DF6894B7FF06C0A095B095F9
:1003A600119600F8039400FA0895E199FECFFF93A1
:1003B600FFB7F894AEBBE09AEDB3FFBFFF91089587
:1003C600E19B02C0A895FCCF9FB7F894AEBBE09A1C
:1003D6008DB3E81719F0EDBBE29AE19A9FBF089535
:1003E6002A931A930A9308952A81198108810895F8
:00000001FF
